:020000040800F2
:10000000A852002049010008C11400080D10000882
:10001000BD1400084B0B0008292F00080000000049
:10002000000000000000000000000000F91D0008B2
:10003000750C000800000000651A00080D1F00087C
:100040006301000863010008630100086301000800
:100050006301000863010008850C0008B50C000866
:10006000CD0C0008E50C0008FD0C00086301000839
:1000700063010008630100086301000863010008D0
:1000800063010008630100086301000863010008C0
:10009000630100086301000863010008150D0008F2
:1000A00063010008630100086301000863010008A0
:1000B0006301000863010008630100086301000890
:1000C0006301000863010008630100086301000880
:1000D00063010008892C0008932C00089D2C00085F
:1000E0009D0C00086301000863010008630100081B
:1000F0006301000863010008630100086301000850
:10010000630100086301000863010008630100083F
:100110007F2C000863010008B1210008630100087A
:10012000630100086301000863010008630100081F
:10013000DFF810D000F0CCFC00480047395400082C
:10014000AFF30080A85200200648804706480047C9
:10015000FEE7FEE7FEE7FEE7FEE7FEE7FEE7FEE777
:10016000FEE7FEE7111F0008310100082DE9F0410C
:100170000024061B254671F1000605DA012400273C
:10018000D0EB070067EB0101161E73F1000605DADC
:100190000027D2EB0702012567EB030300F022FBE7
:1001A00086460E4617469C46AC4204D00025D0EB4E
:1001B000050E65EB010624B10020D2EB000760EBD1
:1001C000030C704631463A466346BDE8F081D2B230
:1001D00001E000F8012B491EFBD270470022F6E730
:1001E00010B513460A4604461946FFF7F0FF2046AD
:1001F00010BD30B504460020034600E05B1C93426E
:1002000003D2E05CCD5C401BF8D030BDF0B480EA96
:100210000102D40F4200B2EB410F02D2024608465F
:1002200011464A0042D0C30DDDB2C1F3C752AD1A28
:10023000202D35DAC1F3160141F4000204B1524217
:10024000C5F1200602FA06F12A411044B3EBD05F53
:1002500023D0C4B1012DA0EBC35009DCF0BC4FF09A
:10026000004202EAC352DBB200F5000000F025BBF9
:10027000400000F1807000EBC350A0F1807040EAB4
:10028000D170490009E0490841EAC071A0EBC350B0
:1002900000F50000400800EBC350F0BC00F004BBC8
:1002A0006142012202EB4101001BF6E7F0BC7047FE
:1002B00081F00041AAE780F00040A7E780EA010250
:1002C00010B502F00043400022D04A001FD0010EBA
:1002D00001EB1261C0F35600C2F3560240F4000075
:1002E00042F40002A0FB022000047F39140400D075
:1002F000401C50EA124001D44000491EC2B20C0614
:1003000004EBD010401C4008802A02D003E00020FB
:1003100010BD20F00100002900DA0020184310BDB4
:1003200030B480EA010202F0004530F0004221F0D2
:10033000004013D090B1C30DD40DC2F31601C0F329
:100340001600E41A41F4000140F400027D349142A9
:1003500001D3641C00E04900002C02DA30BC00200C
:1003600070474FF400000023914201D3891A0343E0
:1003700040084FEA4101F7D151B1914202D14FF00B
:10038000004105E002D24FF0010101E06FF00101F0
:1003900003EBC450284430BC00F086BA2DE9FE4F70
:1003A000804681EA0300C00F0C46009021F0004116
:1003B00023F00045B8EB0200A94105D24046214692
:1003C00090461C460B46024623F00040104347D09F
:1003D000270DC7F30A00C3F30A510290401A019097
:1003E00040286BDAC3F3130040F4801B0098924658
:1003F00020B10023D2EB030A63EB0B0B01985946A3
:10040000C0F14002504600F01EFA06460D46504626
:100410005946019A00F036FA10EB080061410024B9
:1004200087EA115284EAE7731A4340D0009A62B314
:10043000019A012A4FEA075215DC001B61EB020109
:100440004FF0004202EA0752CDE90042001C41F59C
:10045000801132462B4600F06DFA03B0BDE8F08FF4
:1004600040462146F9E7001B61EB0201001C41F503
:10047000801300185B412018A2F5001747EB030119
:1004800040EAD570B6196D4111E06D084FEA3606A5
:1004900045EAC0754FEA0752001B61EB0201001CE0
:1004A00041F5801149084FEA3000001951413246A8
:1004B0002B4603B0BDE8F04F00F02DBA00980122A2
:1004C00040000023D0EB020263EBE073009821466A
:1004D0004FEAE074B8EB000061EB0401E9E783F058
:1004E00000435BE781F0004158E72DE9FE4F81EAC8
:1004F000030404F0004421F0004100944FF0000B8D
:1005000023F0004350EA01045ED052EA03045BD0BA
:10051000C3F30A54C1F30A552C44A4F2F3340194F2
:10052000A0FB0254C1F3130141F48011C3F3130380
:1005300043F4801301FB024400FB034E840A970A34
:1005400044EA815447EA8357A4FB076802958D0A61
:1005500005FB07854FEA932C04FB0C542705029DED
:100560004FEA065847EA1637B5EB08056EEB070C5D
:10057000870E920E47EA811742EA8312A7FB020117
:10058000B6EB0B0164EB00042B0D43EA0C335E1851
:1005900044EB1C50DA465146E7FB0201C5F3130455
:1005A0004FEA0B3343EA14534FEA0432019C43EA07
:1005B0000603A4F10C040294009CCDE900B400F001
:1005C000B9F903B0BDE8F08F00200146F9E72DE945
:1005D000F04D81EA030404F0004B21F0004514467D
:1005E0004FF0000A23F0004150EA050220D054EAFF
:1005F00001021DD0C5F30A570246C5F31303C1F328
:100600001300C1F30A5640F4801543F48013A7EB9E
:100610000608101BD64608F2FD3873EB050002D31E
:1006200008F1010801E092185B41B8F1000F03DA0C
:1006300000200146BDE8F08D00204FF480110646F1
:1006400084460EE0171B73EB050705D3121B63EB03
:10065000050306434CEA010C49084FEA30009218A2
:100660005B4150EA0107EDD152EA030012D082EA61
:10067000040083EA0501084305D0101BAB4106D2F4
:100680000122002306E000224FF0004302E06FF059
:10069000010253101AEB06004CEB085110EB0A0054
:1006A00041EB0B01BDE8F04D00F035B9C10F80EA18
:1006B000E0700844CA079623002100F0FEB8962394
:1006C0000022114600F0F9B80EB5C10F80EAE070C3
:1006D0000844CA07002140F233438DE80E000A4661
:1006E0000B4600F027F903B000BD0EB540F23341D0
:1006F00002910021CDE900110A460B4600F01AF9DB
:1007000003B000BD00F0004220F00040C10DC0F376
:10071000160040F400007F2901DA00207047962976
:1007200003DCC1F19601C84001E096398840002AF7
:10073000F4D04042704720F00040C10DC0F31600D5
:1007400040F400007F2901DA00207047962903DC7D
:10075000C1F19601C840704796398840704700F053
:10076000004230F000400AD0C10D01F56071C0F3C5
:10077000160042EA0151C2084007114370470020A9
:100780000146704701F0004330B421F0004150EAC7
:10079000010206D00A0DA2F56072C1F31301002A0E
:1007A00002DC30BC00207047440F44EAC104C100A1
:1007B000E01830BC00EBC25000F076B8002801DB36
:1007C000C0F10040002901DBC1F1004181427047C6
:1007D000002801DBC0F10040002901DBC1F100412C
:1007E000884270472DE9F05F0546002092469B46FF
:1007F00088460646814640241BE028464146474637
:10080000224600F02FF853465A46C01A914110D3A1
:1008100011461846224600F016F82D1A67EB01081B
:100820004F4622460120002100F00DF817EB000989
:100830004E41201EA4F10104DFDC484631462A4621
:100840004346BDE8F09F202A04DB203A00FA02F17B
:10085000002070479140C2F1200320FA03F31943AE
:1008600090407047202A04DB203A21FA02F0002150
:10087000704721FA02F3D040C2F1200291400843B0
:1008800019467047202A06DBCB17203A41FA02F0BE
:1008900043EAE07306E041FA02F3D040C2F12002DD
:1008A00091400843194670470029A8BF7047401C73
:1008B000490008BF20F00100704710B4B0FA80FC76
:1008C00000FA0CF050EA010404BF10BC704749B1B3
:1008D000CCF1200421FA04F411FA0CF118BF012123
:1008E00021430843A3EB0C01CB1D4FEA00614FEA03
:1008F000102042BF002010BC704700EBC3501044D2
:100900000029A4BF10BC7047401C490008BF20F05C
:10091000010010BC704710B5141E73F1000408DA12
:10092000401C41F1000192185B411A4301D120F0B3
:10093000010010BD2DE9F04D92469B4611B1B1FA70
:1009400081F202E0B0FA80F220329046FFF77BFF9E
:1009500004460F4640EA0A0041EA0B0153465A4654
:10096000084313D0114653EA010019D0C8F14002E0
:100970005046FFF777FF05460E4650465946424619
:10098000FFF761FF084305D0012004E02046394607
:10099000BDE8F08D0020054346EAE0762C4337435E
:1009A0000A986305E40AA0EB08000022FD0A44EA65
:1009B00047540A3002D500200146E9E70105101925
:1009C0006941DDE9084500196941BDE8F04DA2E73C
:1009D00070B521F0004303430CD0C1F30A55002445
:1009E000D5EB040564EB0403D617AD1AB34102DB63
:1009F0000020014670BD201841EB025170BD2DE969
:100A0000F04D00231A461B1A8A4103DB00200146E1
:100A1000BDE8F08DC1F30A52C1F3130141F4801512
:100A20004FF0000BD10702D100186D41521E002774
:100A3000044640F2FF11384601EB620A3E4680460A
:100A4000024600204FF48011FFF70CFFC2197141DC
:100A5000BB1846EB0100B4EB030C75EB000C04D3A0
:100A6000E41A65EB000517460E46241908F101004B
:100A70006D4180463428E3DDF91946EB0600091B79
:100A8000A84103D24FF0FF32134601E00022134683
:100A90001BEB070046EB0A51BDE8F04DFFF73BBFEB
:100AA00030B5041E71F1000404DB4FF000444042F5
:100AB00064EB0101141E73F1000405DB1C464FF0CA
:100AC0000043524263EB04038B4208BF824230BDB5
:100AD000064C074D06E0E06840F0010394E807008B
:100AE00098471034AC42F6D3FFF726FB208D000860
:100AF000408D000870B58C1810F8015B15F00703E5
:100B000001D110F8013B2A1106D110F8012B03E0A6
:100B100010F8016B01F8016B5B1EF9D12B0705D4AE
:100B20000023521E0DD401F8013BFAE710F8013BF7
:100B3000CB1A921C03E013F8015B01F8015B521E13
:100B4000F9D5A142D8D3002070BD00BFFEE7000058
:100B50002DE9FC470F480088FFF7C7FD04460D4606
:100B60000D4801F034FE0D490988A0EB010A5046FA
:100B7000FFF7AAFD06460022094BFFF7B6FC8046A8
:100B800022462B46FFF723FDCDE90001FFF7FAFDD2
:100B9000BDE8FC8718000020001000401A0000206B
:100BA0000000594010B5034801F011FE02490880C9
:100BB00010BD0000001000401A00002021B10268A2
:100BC00042F00102026004E002684FF6FE731A4030
:100BD000026070470146486880B2704710B5002235
:100BE000026847F6F0739A430C6A8B6823430C69DA
:100BF00023434C6923438C692343CC6923434C6AC8
:100C000023438C6A23431A430260CB6843600B681A
:100C100083604B68C36010BD4160704738B50020E9
:100C200000906B4601227521682004F037FB04F028
:100C300085FEE0B9782005F05BFC782004F050FDDB
:100C4000C82005F007FC03F065FA094804F0B8FB7A
:100C5000044603F0B9FC40F2731003F003F9C82016
:100C600003F0E2FB05F01DFD012005F0EFFA38BDB1
:100C7000740000207047002000E0401C0A28FCDBC4
:100C80007047000010B5034800F050F802480068B3
:100C9000804710BDFFFF0F008400002010B50348FF
:100CA00000F044F802480068804710BDFFFF0F00C5
:100CB0008400002010B5034800F038F802480068AE
:100CC000804710BDFFFF0F008400002010B50348CF
:100CD00000F02CF802480068804710BDFFFF0F00AD
:100CE0008400002010B5034800F020F80248006896
:100CF000804710BDFFFF0F008400002010B503489F
:100D000000F014F802480068804710BDFFFF0F0094
:100D10008400002010B5034800F008F8024800687D
:100D2000804710BDFFFF0F008400002001490860CC
:100D30007047000014040140002123498279002AF1
:100D40003AD00A46126803689A430B461A600A1D95
:100D5000126803689A430B1D1A60027911440A68ED
:100D600003681A430A60184A0832126803689A43F3
:100D7000154B08331A601A1D126803689A43124B08
:100D80000C331A604279102A0ED11A1F12680368B8
:100D90001A430D4B08331A601A1D126803681A4370
:100DA000094B0C331A600DE00749427911440A6877
:100DB00003681A430A6005E0027911440A6803686F
:100DC0009A430A60704700000004014030B50022D9
:100DD0008B071C0F0F2303FA04F20B4B8C1053F8F4
:100DE00024309343084C8D1044F8253023468C1052
:100DF00053F824308C07240F00FA04F42343024CE8
:100E00008D1044F8253030BD080001402DE9F04137
:100E1000024600250026002000230024002791F828
:100E200003C00CF00F0591F803C00CF0100CBCF1DE
:100E3000000F03D091F802C04CEA050591F800C0FC
:100E4000BCF1000F31D0146800202BE04FF0010CF2
:100E50000CFA00F3B1F800C00CEA03069E4220D160
:100E600083004FF00F0C0CFA03F7BC4305FA03FCA8
:100E70004CEA040491F803C0BCF1280F06D14FF0EE
:100E8000010C0CFA00FCC2F814C00AE091F803C08F
:100E9000BCF1480F05D14FF0010C0CFA00FCC2F870
:100EA00010C0401C0828D1D31460B1F800C0BCF1B8
:100EB000FF0F34DD546800202EE000F1080C4FF0E5
:100EC000010808FA0CF3B1F800C00CEA03069E42D0
:100ED00021D183004FF00F0C0CFA03F7BC4305FA45
:100EE00003FC4CEA040491F803C0BCF1280F05D1BF
:100EF00000F1080C08FA0CF8C2F8148091F803C04D
:100F0000BCF1480F07D100F1080C4FF0010808FAB6
:100F10000CF8C2F81080401C0828CED35460BDE8FD
:100F2000F0810000F0B50A460023002400210025CE
:100F300000F00046B6F1004F02D11D4EF16901E00C
:100F40001B4E7168C0F3034583B200F44016B6F53A
:100F5000401F08D121F07061154E766826F070664A
:100F6000134F7E6012E000F48016B6F5801F06D1A4
:100F7000032606FA05F4A14341F0706106E0460D30
:100F8000360103FA06F6B14341F0706122B1460D15
:100F9000360103FA06F6314300F00046B6F1004F81
:100FA00002D1034EF16101E0014E7160F0BD00001D
:100FB00000000140016170474FF6FF71018002217E
:100FC00081700421C170704701460F48006820F00D
:100FD0001F000D4A106010460068084310600A4860
:100FE0002C38006840F48000074A2C3A106000BF9B
:100FF00005483438006800F002000028F8D00248A4
:101000001830006880B270473424014000BFFEE70A
:1010100070B505460E46002400F0EAF8284600F0B8
:10102000B5F8641C00F03CF9304600F0AFF8641CE1
:1010300000F036F900F0DCF8691CC8B200F0A6F840
:10104000641C00F02DF9002000F068F8044600F060
:1010500003F9204670BD000010B500200E4908605D
:101060000E48006820F0F0000C490860084600684F
:1010700040F03000086000200949C1F8A4010120B7
:1010800002F038FE01200449086002F033FE00201F
:101090000349C1F8A00110BDA0812142040C014008
:1010A0000080214208B50121082000F0FDFC4FF42A
:1010B0004070ADF8000010208DF8030003208DF87B
:1010C000020069460148FFF7A1FE08BD000C01407F
:1010D00010B500200E4908600E48006820F0F000AE
:1010E0000C4908600846006840F0300008600120A4
:1010F0000949C1F8A40102F0FDFD0120044908607E
:1011000002F0F8FD00200449C1F8A00110BD000064
:10111000A0812142040C01400080214270B50546A7
:1011200000241748006820F0F000154908600846C0
:10113000006840F080000860002616E00020114999
:101140000860022002F0D6FD01200F49C1F8A0017D
:101150006006040E0B487C38006808B1601CC4B2FD
:10116000022002F0C7FD701CC6B2082EE6DB15B1E6
:10117000FFF772FF01E0FFF7ABFF204670BD0000F4
:10118000040C0140A08121420080214270B5044638
:101190001448006820F0F000124908600846006812
:1011A00040F03000086000200F490860002516E07C
:1011B000E0090D49091D08606006040E012002F0D7
:1011C00099FD01200949C1F8A00102F093FD00201A
:1011D00005490860012002F08DFD681CC5B2082D8C
:1011E000E6DB70BD040C0140A08121420080214259
:1011F00010B51648006820F0F00014490860084651
:10120000006840F030000860012011490860114872
:10121000D0F8240108B9002010BD01200C49091F95
:10122000086002F067FD00200A49C1F8A4010848DF
:101230008038006808B10020EEE7012002F05AFD76
:1012400000200349091F08600120E5E7040C014064
:10125000A48121420080214210B50E48006820F090
:10126000F0000C4908600846006840F03000086053
:101270000020094908600949C1F8A401012002F0D1
:1012800039FD0120044908600449C1F8A40102F0B5
:1012900031FD10BD040C0140A0812142008021429B
:1012A00010B500241548006820F0F00013490860CC
:1012B0000846006840F0800008600120104908607E
:1012C00002F018FD01200F49C1F8A00102F012FD43
:1012D0000AE0601CC4B2322C03DDFFF7BDFF002022
:1012E00010BD012002F006FD054880380068002886
:1012F000EFD10349091F08600120F1E7040C014008
:10130000A48121420080214270B505460E46144654
:1013100031462846FFF77CFE2070012070BDF8B5ED
:1013200006460F4614461D466A4639463046FFF7C4
:10133000EBFF2DB10120A0409DF80010084305E00F
:101340000120A0409DF8001021EA0000C0B20090EA
:101350009DF800203946304600F036F8F8BD2DE9FA
:10136000F8430746884614461D46089E6A4641468D
:101370003846FFF7C9FF28B3601CFF2101FA00F0CF
:10138000C4F108012944491EFF220A41104300F01C
:10139000FF09C5F1080006FA00F0C6B2C4F1070063
:1013A00006419DF8000000EA090000909DF8000049
:1013B000304300909DF800204146384600F004F884
:1013C000BDE8F8830020FBE737B504460D4602ABC5
:1013D00001222946204600F001F83EBD2DE9F041EA
:1013E00080460D4616461F460024FFF701FF404683
:1013F000FFF7CCFEFFF754FF2846FFF7C7FEFFF7C5
:101400004FFF00BF06E0385DFFF7C0FEFFF748FF63
:10141000601CC4B2B442F6DBFFF71EFF0120BDE83A
:10142000F08110B5022000F010F8032000F021F840
:10143000002000F014F8002000F037F8002000F041
:101440002BF8002000F01FF810BD38B50446032328
:1014500002226B21D0200094FFF781FF38BD38B500
:101460000446022304221C21D0200094FFF777FFBA
:1014700038BD38B50446022304221B21D020009435
:10148000FFF76DFF38BD10B5044623460122372112
:10149000D020FFF744FF10BD10B5044623460522B7
:1014A0006A21D020FFF73BFF10BD10B5044623464C
:1014B00006226B21D020FFF732FF10BD00BFFEE7F0
:1014C0007047000070B5002100230F22C47804B3D8
:1014D000154C246804F4E064C4F5E064210AC1F109
:1014E0000403CA40447804FA03F184781440214389
:1014F00009010E4C0678A155047804F01F0501245B
:10150000AC4005786D11AD0005F1E025C5F800414E
:1015100009E0047804F01F050124AC40044D06786E
:10152000761145F8264070BD0CED00E000E400E0C7
:1015300080E100E002490143024A11607047000067
:101540000000FA050CED00E030B500240CE00025A9
:1015500006E00020074901EBC5010855681CC5B22B
:10156000802DF6DB601CC4B2082CF0DB00F0D6F84E
:1015700030BD0000FC020020F0B5144600267F2894
:1015800001DC3F2900DDF0BD0B46CF1701EB57779B
:10159000FF10C7F10707FAB2CF1701EB5777FF101B
:1015A000A1EBC707FDB2C5F107070123BB40DEB2BF
:1015B0004CB10A4B03EBC0039B5C3343074F07EB73
:1015C000C007BB5408E0054B03EBC0039B5CB3436F
:1015D000024F07EBC007BB5400BFD4E7FC0200205A
:1015E00010B54948806940F008004749886147487C
:1015F000006820F47F00454908600846006840F410
:10160000081008604048806940F004003E49886145
:101610003F48006820F47F203D4908600846006884
:1016200040F40830086000203A490860642002F065
:101630003BFB01203849C1F8AC010021AE2000F08D
:1016400073F90021D52000F06FF90021502000F03F
:101650006BF90021A82000F067F900213F2000F07D
:1016600063F90021D32000F05FF90021084600F063
:101670005BF90021402000F057F900218D2000F097
:1016800053F90021142000F04FF90021202000F030
:101690004BF90021022000F047F90021A12000F0C1
:1016A00043F90021C02000F03FF90021DA2000F0CA
:1016B0003BF90021122000F037F90021812000F0D1
:1016C00033F90021EF2000F02FF90021D92000F09C
:1016D0002BF90021F12000F027F90021DB2000F098
:1016E00023F90021302000F01FF90021A42000F090
:1016F0001BF90021A62000F017F90021AF2000F00F
:1017000013F9FFF721FF10BD00100240040C014047
:1017100004080140AC0121420000214230B5002400
:101720001CE004F1B001C8B2002100F0FDF8002176
:10173000084600F0F9F80021102000F0F5F8002527
:1017400008E0084901EBC501085D012100F0ECF853
:10175000681CC5B2802DF4DB601CC4B2082CE0DB31
:1017600030BD0000FC02002030B5044604F1B00199
:10177000C8B2002100F0D8F80021084600F0D4F8E3
:101780000021102000F0D0F8002508E0054901EB09
:10179000C501085D012100F0C7F8681CC5B2802DA5
:1017A000F4DB30BDFC0200202DE9F04F80460C46F2
:1017B00015461E46A346A5F12000C5B200273EE00F
:1017C0000C2E07D105EB45001F4901EB800010F8F6
:1017D000079004E01D4800EB051010F807904FF04B
:1017E000000A26E009F0800028B121464046099A07
:1017F000FFF7C2FE09E0099808B9012000E00020C7
:10180000024621464046FFF7B7FE4FEA49604FEADD
:101810001069601CC4B2A4EB0B00B04205D15C4659
:1018200008F1010000F0FF0806E00AF1010000F0F5
:10183000FF0ABAF1080FD5DB00BF781CC7B2B74268
:10184000BEDBBDE8F08F0000C68100083A860008C4
:101850002DE9FF4F81B0074691461E460E9D4FF081
:10186000000A002439E0301B401EC1B20A2004F0F7
:101870000DFFB9FBF0F00A21B0FBF1F201FB1208F9
:10188000BAF1000F16D1701EA04213DDB8F1000F9F
:101890000ED10120AB4605EBDB71491001FB047151
:1018A0000090C8B22B4620220299FFF77DFF12E07C
:1018B0004FF0010A0120AB4605EBDB71491001FB3B
:1018C00004710090C8B208F13001CAB22B460299E7
:1018D000FFF76AFF00BF601CC4B2B442C3DB05B0AF
:1018E000BDE8F08F78B505460E46144618E07A2D0F
:1018F00003DD002506F11000C6B23A2E04DD0020FB
:1019000005460646FFF720FE0120009022780C23B2
:1019100031462846FFF748FF05F10800C5B2641CB0
:1019200020780028E3D178BD10B50A461AB101230A
:10193000114C236002E000230F4C2360002114E0CF
:1019400000230E4C236000F080031BB10123241DF3
:10195000236003E00023094C241D23600123074C6E
:1019600023604306180E4B1CD9B20829E8DB01237B
:10197000014C236010BD0000B0012142B081214222
:101980002DE9F84F04460F46164639463046FEF715
:101990008FFC054629466069FEF738FC60612846E1
:1019A000E168FEF785FC8346A168FEF787FC814667
:1019B00061696068FEF782FC834629462068FEF76D
:1019C0007DFC59460090FEF721FC82464946FEF711
:1019D0001DFC8046E5604046BDE8F88F2DE9FC5FC0
:1019E00004460F46164639463046FEF761FC05466A
:1019F0004FF08040E168FEF761FC29460090FEF759
:101A00005AFC83462169FEF701FC8246A168FEF775
:101A100055FC814629466068FEF750FC0090284638
:101A2000E168FEF745FC83462168FEF747FC8246E5
:101A30000099FEF7EBFB49460190FEF7E7FB804675
:101A4000E0682061E5604046BDE8FC9F30B5039C3E
:101A5000016083604260012C03D10025C5600561EF
:101A6000456130BD7047000029B1064A5269024302
:101A7000044B5A6104E0034A52698243014B5A61A4
:101A8000704700000010024029B1064AD2690243A3
:101A9000044BDA6104E0034AD2698243014BDA6104
:101AA000704700000010024029B1064A92690243C3
:101AB000044B9A6104E0034A92698243014B9A61A4
:101AC000704700000010024030B5002100220024C1
:101AD00000232D4D6D6805F00C0121B1042905D0BE
:101AE000082923D105E0294D056022E0274D056036
:101AF0001FE0254D6D6805F47012234D6D6805F4E7
:101B00008034022505EB92421CB9214D55430560F6
:101B10000BE01D4D6D6805F400351DB11C4D55439E
:101B2000056002E0194D5543056002E0174D056060
:101B300000BF00BF144D6D6805F0F0010909154D97
:101B40006B5C0568DD4045600F4D6D6805F4E06134
:101B5000090A104D6B5C4568DD4085600A4D6D6873
:101B600005F46051C90A0B4D6B5C4568DD40C560EA
:101B7000054D6D6805F44041890B074D6B5CC568E8
:101B8000B5FBF3F5056130BD0010024000127A008C
:101B900000093D0000000020100000202DE9F04F5A
:101BA0008FB00CA889490DAB08AACDE9001088496F
:101BB000884802F0BBFA8548008800F4807000284D
:101BC0007ED00898FEF772FD04464FF09D41FEF767
:101BD000A7FB814908600998FEF768FD04464FF0AD
:101BE0009D41FEF79DFB7D4908600A98FEF75EFD6A
:101BF00004464FF09D41FEF793FB794908600B982E
:101C0000FEF754FD04464FF09D41FEF789FB7549F0
:101C10000860714801684FF08040FEF74FFB069066
:101C20006F4801680698FEF749FB82466B480168D9
:101C30004FF04040FEF742FB06906A480168069864
:101C4000FEF73CFB83465146FEF7E0FA0790FEF7AD
:101C500086FD804601F050FA06464FF06632624B30
:101C6000FEF743FC0446FEF78DFD604908605C48C2
:101C700001684FF08040FEF721FB0390584801684F
:101C80000398FEF71BFB8246544801684FF0404022
:101C9000FEF714FB0390514801680398FEF70EFB12
:101CA00083465146FEF704FB81464FF07E51FEF716
:101CB000ADFA0446FEF753FDCDE90401464800E0C5
:101CC00081E001684FF08040FEF7F8FA8346434810
:101CD00001685846FEF7F2FA8146414801684FF024
:101CE0008040FEF7EBFA83463E4801685846FEF70F
:101CF000E5FA82464946FEF789FA0446FEF72FFDCB
:101D00000746DDE9042301F03FFC4FF06632364B15
:101D1000CDE90601FEF7E9FB0546FEF733FD344940
:101D20000860304801680068FEF7C8FA03902C4844
:101D300001680068FEF7C2FA02902848016800684E
:101D4000FEF7BCFA8346244801680068FEF7B6FA3D
:101D500059460190FEF75AFA82460299FEF7A8FA10
:101D600081460399FEF7A4FA0446FEF7F8FCCDE994
:101D700004011C48016818480068FEF79FFA824673
:101D80001748016815480068FEF798FA83465146DF
:101D9000FEF73CFA81464FF08041FEF78FFA044689
:101DA000FEF7DDFC0746DDE9042301F0EDFB4FF013
:101DB00066320D4BCDE90601FEF797FB0546FEF7AF
:101DC000E1FC0C4908600FB0BDE8F08F5400002022
:101DD0004E00002048000020640000206800002021
:101DE0006C0000207000002066A64C4058000020C7
:101DF0005C00002060000020704710B500F002F881
:101E000010BD00000CB50020019000903348006820
:101E100040F480303149086000BF3048006800F469
:101E2000003000900198401C0190009818B901986A
:101E3000B0F5A06FF1D12948006800F4003010B16E
:101E40000120009001E0002000900098012843D17B
:101E50002348006840F010002149086008460068E7
:101E600020F0030008600846006840F002000860A7
:101E70001A48406819494860084640684860084662
:101E8000406840F4806048600846406820F47C1058
:101E900048600846406840F4E8104860084600681A
:101EA00040F08070086000BF0C48006800F00070CF
:101EB0000028F9D00948406820F00300074948602D
:101EC0000846406840F00200486000BF0348406890
:101ED00000F00C000828F9D10CBD000000100240F1
:101EE00000200240042808D14FF0E021096941F0A8
:101EF00004014FF0E022116107E04FF0E021096991
:101F000021F004014FF0E02211617047704700009A
:101F100010B51348006840F00100114908600846F8
:101F20004068104908400E494860084600680E495C
:101F300008400B4908600846006820F480200860CB
:101F40000846406820F4FE0048604FF41F00886097
:101F5000FFF753FF4FF000600449086010BD000018
:101F6000001002400000FFF8FFFFF6FE08ED00E061
:101F7000F0B50C46154600220021068C4FF6FE7780
:101F80003E400684028B018C4FF60C7632407E1C5C
:101F900006EA03162E433243104EB0420ED0104EC6
:101FA000B0420BD0B0F1804F08D00E4EB04205D0F9
:101FB0000D4EB04202D00D4EB04206D14FF6FD7626
:101FC000314044F00106314305E04FF6F5763140EB
:101FD00044F00106314302830184F0BD002C01402E
:101FE000003401400004004000080040000C0040A4
:101FF000F0B50C461546002200210026078C4FF64E
:10200000EF7C07EA0C070784028B018C4FF6FF7701
:1020100007EA041640F6FF473A404FF6FF7707EA13
:1020200003373A434FF6FF7707EA05273A43114F44
:10203000B8420ED0104FB8420BD0B0F1804F08D04C
:102040000E4FB84205D00E4FB84202D00D4FB842E5
:1020500006D14FF6DF77394046F01007394305E0E7
:102060004FF65F77394044F010073943028301840B
:10207000F0BD0000002C014000340140000400408D
:1020800000080040000C0040F0B50C461546002248
:1020900000210026078C4FF6FF6C07EA0C07078427
:1020A000828B018C4FF6FF7707EA04264FF60C77F8
:1020B0003A404FF6FF7707EA03172F433A43114F91
:1020C000B8420ED0104FB8420BD0B0F1804F08D0BC
:1020D0000E4FB84205D00E4FB84202D00D4FB84255
:1020E00006D14FF6FF57394046F48077394305E073
:1020F0004FF2FF57394044F480773943828301849B
:10210000F0BD0000002C01400034014000040040FC
:1021100000080040000C0040F0B50C4615460022B7
:1021200000210026078C4EF6FF7C07EA0C07078487
:10213000828B018C4FF6FF7707EA043640F6FF47A3
:102140003A404FF6FF7707EA05273A434FF6FF7705
:1021500007EA03373A43114FB8420ED0104FB84246
:102160000BD0B0F1804F08D00E4FB84205D00E4FC3
:10217000B84202D00D4FB84206D14DF6FF77394034
:1021800046F48057394305E047F6FF57394044F499
:102190008057394382830184F0BD0000002C014048
:1021A000003401400004004000080040000C0040E2
:1021B00000B5A5B000202490FEF7F4FC0121FE48F4
:1021C00000F0C6FAFD480068632801DB002002E049
:1021D000FA480068401CF949086003F093FB01F0DD
:1021E0001FFC012003F0C6F8C0F101002390FEF7A8
:1021F0005DFAF3490860022003F0BCF8401E23900A
:10220000FEF754FAEF490860032003F0B3F8401ECC
:102210002390FEF74BFAEC490860042003F0AAF87B
:10222000C0F101002390FEF741FAE8490860002060
:102230001A901B901C901D90169017901890199052
:1022400012901390149015900E900F901090E049FA
:10225000E04AE14B1190CDE90A32CDE90C10DF489C
:102260000021DF4ADF4BCDE90632CDE90810DE4818
:10227000DE4BCDE90231CDE90410DD48DD49002314
:102280001A46CDE90010DC49022004F07BFD00284D
:102290003FD000200090D5480368D5480268D54853
:1022A0000168D648FFF7D2FB00200090CF480368B2
:1022B000CF480268CF480168D148FFF7C7FB00202C
:1022C0000090CA480368CA480268CA480168CD48F5
:1022D000FFF7BCFB00200090C4480368C4480268B4
:1022E000C4480168C848FFF7B1FB00200090BC4813
:1022F0000368BC480268BC480168C448FFF7A6FBF5
:10230000BD480078012804D1002004F05BFB00BF29
:10231000FEE7B04801680068FDF7D0FF1E90AE48A8
:1023200001680068FDF7CAFF1D901E99FDF76EFF5A
:102330001F90FEF714FACDE9200104F0F1FACDE97F
:102340002201FEF71FFAB24908600021B048006878
:10235000FEF734FA24D09F480068FEF700FACDE972
:102360001C019D48006880F000401990FEF7F7F9C5
:10237000CDE91A01DDE91C2301F006F9A54AA64BB7
:10238000CDE91E01FEF723F90022A44BCDE920017F
:10239000FEF7ABF8CDE92201FEF7F4F9A049086099
:1023A0009F4801689F480068FDF782FF9E4923907F
:1023B000FEF70EFA07D29D4999480068FDF726FFFF
:1023C0009749086011E09748016895480068FDF753
:1023D0006FFF95492390FEF7FBF906D29349904889
:1023E0000068FDF765FF8E4908608D4802688D48DA
:1023F00001688648FFF7C4FA8D490860774801688C
:1024000083480068FEF7E4F904D274480068804904
:10241000086010E07148006880F0004023907C481C
:1024200001682398FEF7D4F905D26C48006880F063
:102430000040774908607E48016875480068FDF7EC
:1024400037FF7C490860624801687A480068FEF7F7
:10245000BFF904D25E4800687649086010E05C4825
:10246000006880F000402390724801682398FEF7CE
:10247000AFF905D25648006880F000406D49086009
:102480006C4800686C4908606948016860480068E9
:10249000FDF7BCFE694908604D480168674800685F
:1024A000FEF796F904D24A4800686449086010E0D3
:1024B0004748006880F000402390604801682398F6
:1024C000FEF786F905D24248006880F000405B497B
:1024D00008605A4800685A490860574802683B48F3
:1024E00001684948FFF77AFA239055480268364850
:1024F00001684448FFF772FA229050480268314858
:1025000001683F48FFF76AFA21904A4802682C4860
:1025100001683A48FFF762FA209021A90EC904F039
:1025200025FA4849002004F04DF90020039004905A
:1025300005904549454A0690454BCDE9002102905A
:10254000444A4549042004F0A9FE1C480068239031
:1025500000EBD07041102398A0EB410000287DD102
:1025600039480068FEF7A2F8239038480068FEF763
:102570009DF8229036480068FEF798F8219035487B
:102580000068FEF793F8209033480068FEF78EF855
:102590001F90FEF7DDFA1E9000201A901B901C90F1
:1025A0001D901690179018901990129013901490F7
:1025B00000211590239852E000100040D002002026
:1025C00074020020780200207C020020800200209B
:1025D000B0020020B8020020B4020020AC020020AB
:1025E0008C0200208802002084020020600200206B
:1025F0005C02002058020020A402002030120020BB
:102600004812002060120020781200209012002052
:10261000A80200206F1283C0CA21094000806640D2
:1026200090020020EC010020000034430000B4437D
:102630009402002064020020700200206802002042
:102640006C02002000002F45CC020020C8020020B0
:10265000C4020020C0020020BC0200202EE0CDE910
:102660000E0110911191DDE91F23DDE92110CDE963
:102670000A23CDE90C102548006825490A68254938
:102680000968254B1B68CDE90631CDE908202348B0
:10269000016823480268234B1E981B68CDE902306D
:1026A000CDE90421204800682049096800231A4622
:1026B000CDE900101946022004F0F8FC1C4800681F
:1026C00078B901201B490860091F0860091F0860CC
:1026D000091F0860091F0860091F0860091F0860BA
:1026E00012E01348006832280ED10020114908601A
:1026F000091F0860091F0860091F0860091F08609A
:10270000091F0860091F086025B000BD680200208D
:1027100064020020800200207C0200207802002059
:1027200074020020E4010020E8010020EC010020F8
:10273000D00200209801234221B1028842F0800299
:10274000028004E002884FF67F731A4002807047CF
:10275000CA430282704721B1028842F0010202801E
:1027600004E002884FF6FE731A400280704731B1D0
:10277000B0F8442042F40042A0F8442005E0B0F84C
:102780004420C2F30E02A0F844207047F0B50C4676
:1027900015461E460021002200230189028B038C6E
:1027A0004FF6F877394021434FF6FC473A4040F264
:1027B00001173A434FF6DD773B404FF6FF7707EAC4
:1027C00006172F433B43018102830384F0BD01467A
:1027D000888C704770B505460C46244885420ED05B
:1027E000234885420BD0B5F1804F08D0214885425F
:1027F00005D02148854202D02048854200D100E022
:1028000000BF208850B92389A28861882846FFF735
:10281000AFFBE188284600F0ABF925E020880428CA
:102820000AD12389A28861882846FFF7E1FBE18865
:10283000284600F0A6F917E0208808280AD1238945
:10284000A28861882846FFF71FFCE188284600F02F
:10285000A5F909E02389A28861882846FFF75CFC76
:10286000E188284600F0A3F970BD0000002C01406B
:10287000003401400004004000080040000C00400B
:10288000002101804180012181800021C1800181DE
:1028900070471AB183890B43838102E083898B439C
:1028A0008381704770B5002400220023058C4FF609
:1028B000FE7635400584028C8388048B4FF68F7535
:1028C0002C40B51E2C400D882C43751E2A400D89C6
:1028D0002A434D882A43144DA8420BD0134DA842D9
:1028E00008D0134DA84205D0124DA84202D0124D77
:1028F000A84213D14FF6F7752A404D892A434FF667
:10290000FB752A408D882A434FF6FF652B404FF612
:10291000FF552B408D892B43CD892B438380048326
:10292000CD888586028470BD002C014000340140B2
:102930000040014000440140004801400A46002197
:10294000018B4FF6F7731940114301837047000064
:1029500070B5002400220023058C4FF6EF76354039
:102960000584028C8388048B48F6FF752C404FF653
:10297000FF452C400D884FF6FF7606EA05252C43CF
:102980004FF6DF752A400D8906EA05152A434D8862
:1029900006EA05152A43154DA84202D0144DA84257
:1029A0001DD14FF67F752A404D894FF6FF7606EA16
:1029B00005152A434FF6BF752A408D8806EA05158E
:1029C0002A434FF6FF352B404FF2FF752B408D8980
:1029D00006EA85052B43CD8906EA85052B438380CE
:1029E0000483CD880587028470BD0000002C01405F
:1029F000003401400A460021018B4FF2FF73194059
:102A00004FF6FF7303EA0223194301837047000066
:102A100070B5002400220023058C4FF6FF66354078
:102A20000584028C8388848B4FF68F752C404FF67B
:102A3000FC752C400D882C434FF6FF552A400D891C
:102A40004FF6FF7606EA05252A434D8806EA052556
:102A50002A43154DA84202D0144DA8421DD14FF271
:102A6000FF752A404D894FF6FF7606EA05252A4371
:102A70004FF6FF352A408D8806EA05252A434EF693
:102A8000FF752B404DF6FF752B408D8906EA051525
:102A90002B43CD8906EA05152B4383808483CD889B
:102AA0008587028470BD0000002C01400034014085
:102AB0000A460021818B4FF6F77319401143818339
:102AC0007047000070B5002200230024058C4EF6EC
:102AD000FF7635400584038C8488828B48F6FF7529
:102AE0002A404FF6FF452A400D884FF6FF7606EA4A
:102AF00005252A434DF6FF752B400D8906EA05355D
:102B00002B434D8806EA05352B430B4DA84202D0D6
:102B10000A4DA84208D14BF6FF752C408D894FF61F
:102B2000FF7606EA85152C4384808283CD88A0F841
:102B30004050038470BD0000002C0140003401406F
:102B40000A460021818B4FF2FF7319404FF6FF7345
:102B500003EA022319438183704781867047018706
:102B6000704781877047A0F8401070478184704794
:102B7000028B4FF6F3731A400283028B0A430283DF
:102B80007047028B4FF2FF331A400283028B4FF6DD
:102B9000FF7303EA01231A4302837047828B4FF6C7
:102BA000F3731A408283828B0A4382837047828B3D
:102BB0004FF2FF331A408283828B4FF6FF7303EA92
:102BC00001231A4382837047002202881D4B9842DA
:102BD0000ED01D4B98420BD0B0F1804F08D01B4B4C
:102BE000984205D01A4B984202D01A4B984204D111
:102BF0004FF68F731A404B881A43174B984207D0F1
:102C0000164B984204D04FF6FF431A40CB881A4324
:102C100002808B8883850B8803850A4B98420BD0F2
:102C2000094B984208D00E4B984205D00D4B984264
:102C300002D00D4B984201D10B7A03860123838287
:102C400070470000002C01400034014000040040A7
:102C500000080040000C004000100040001400403C
:102C60000040014000440140004801404FF6FF7120
:102C7000818000210180C18041800172704710B5C0
:102C8000042000F0F5F810BD10B5012000F0F0F8B8
:102C900010BD10B5022000F0EBF810BD10B50320F8
:102CA00000F0E6F810BD10B50022002340F66A14CB
:102CB000A14200D100BF0A1201249440A3B2DC4318
:102CC000048010BD21B1828942F40052828104E067
:102CD00082894DF6FF731A40828170471AB1838A48
:102CE0000B43838202E0838A8B438382704770B5F3
:102CF0000246002400230025002040F66A16B14257
:102D000000D100BFC1F3421501F01F03012606FAEE
:102D100003F3012D02D19689334006E0022D02D142
:102D2000168A334001E0968A33400C12012606FAD7
:102D300004F41688344013B10CB1012000E00020E7
:102D400070BDF0B50346002400260025002040F6A3
:102D50006A17B94200D100BF1846C1F3421401F00E
:102D60001F06012707FA06F5012C01D10C3004E0FB
:102D7000022C01D1103000E014301AB107682F4343
:102D8000076002E00768AF430760F0BD2DE9F04738
:102D900086B005460E460024A24600BFA146002785
:102DA000B08900B100BF2F462C8A4CF6FF7004405A
:102DB000F08804432C82AC894EF6F3100440B088AE
:102DC00031890843718908430443AC81AC8A4FF6CA
:102DD000FF400440B0890443AC8201A8FEF774FEB2
:102DE0001F48874202D1DDF810A001E0DDF80CA0F9
:102DF000A88900F4004040B10AEBCA0000EB0A10B9
:102E000031684900B0FBF1F807E00AEBCA0000EBBB
:102E10000A1031688900B0FBF1F86420B8FBF0F0CB
:102E200004012009642101FB1089A88900F40040F5
:102E300040B1322000EBC900B0FBF1F000F0070018
:102E4000044308E0322000EB09106421B0FBF1F0EC
:102E500000F00F0004432C8106B0BDE8F0870000AD
:102E60000038014001468888C0F308007047000020
:102E700070B5044600260025641E254951F824003B
:102E800040F22441FFF733FF002840D0204951F899
:102E90002400FFF7E7FF1F4951F824000021FDF748
:102EA0008DFE1C4951F82400FDF794FEC0F1C800C6
:102EB000C6B2194850F82400066000BF0DE004EBCC
:102EC000C40000EB0410154901EBC000405D14493B
:102ED00051F824104855681C85B2B54204DA1148EF
:102EE00050F82400A842EAD8094951F8240040F2D9
:102EF0002441FFF7D8FE074951F82400C821FDF707
:102F00008BFE044951F824000121FDF757FE70BDE6
:102F1000E8000020B8010020480B0020FC0600203B
:102F2000200B0020340B002000BFFEE7490050EAD0
:102F3000C12018BF04204A0D18BF40F0010040F224
:102F4000FF72B2EB515F08BF40F00200012808BFDA
:102F5000052070472DE9F0414F1E00EBC7010446E4
:102F6000D1E9000115461E4637F006020DD02A466B
:102F70003346FDF7BAFA7F1E04EBC703D3E90023FB
:102F8000FDF70CFA37F00602F1D1022F25D0042FFD
:102F900013D0062F18BFBDE8F0812A463346FDF74F
:102FA000A4FAD4E90A23FDF7F9F92A463346FDF7D6
:102FB0009CFAD4E90823FDF7F1F92A463346FDF7D8
:102FC00094FAD4E90623FDF7E9F92A463346FDF7DA
:102FD0008CFAD4E90423FDF7E1F92A463346FDF7DC
:102FE00084FAD4E90223FDF7D9F92A463346FDF7DE
:102FF0007CFAD4E90023BDE8F041FDF7CFB9012206
:10300000FDF7E6BCFDF7CAB900221346104611468B
:10301000FDF7DDBA024A00201107FDF7D9BC000018
:1030200001FDFFFF02E008C8121F08C1002AFAD103
:1030300070477047002001E001C1121F002AFBD138
:10304000704700000149086070470000E802002056
:103050002DE9FE4F06460F460025684601F0BEFCEE
:10306000002442E056F8240057F82410A0EB010A8F
:10307000BAF1000F01DB514601E0CAF10001084638
:10308000FDF714FB83464FF08F41FDF749F9804669
:103090005DF824000021FDF791FB16D05DF82410A7
:1030A0004046FDF73DF982464FF07E51FDF700F9AD
:1030B000814629F0004A0F48416A5046FDF788FBD7
:1030C00012D20120A04005430EE00A48C1694046E3
:1030D000FDF774FB05D30748016A4046FDF778FB0E
:1030E00002D20120A0400543641C032CBADB284611
:1030F000BDE8FE8FA87500082DE9F04D8D4F21F039
:10310000004A86B005460C46BA452ADBAAEB070002
:1031100028430AD08848824501DC1AD1CDB106B0D7
:103120002846BDE8F04DFFF76ABF844A844B284625
:10313000FDF7DBF907460E46824A834B28462146B7
:10314000FDF7D3F906B03A463346BDE8F04DFDF73A
:1031500025B90120FFF776FF06B0BDE8F04DFFF777
:1031600053BF7A48824542DABAF1795F0BDA2846D2
:10317000FFF7DCFE042808BFFFF74CFF284606B027
:103180002146BDE8F08D2A460B461046FDF7ADF905
:10319000834602466E480E460B4606217844FFF7EA
:1031A000D9FE5A463346FDF7A0F9804669488A465B
:1031B0005A46334604217844FFF7CCFE5A4633463C
:1031C000FDF793F900223B46FDF7E8F802460B466F
:1031D00040465146FDF7FBF92A462346FDF785F99F
:1031E00006B02A462346BDE8F04DFDF7D7B828467D
:1031F00024F0004100223D463B46FDF773F94FF0B5
:10320000FF32FDF7E5FB0646024653480F460B46E4
:1032100006217844FFF79EFE32463B46FDF765F9EE
:10322000CDE900014D4832463B4604217844FFF782
:1032300091FE32463B46FDF758F900222B46FDF73A
:10324000ADF8834602913046394603F069FB80466B
:1032500043480D46504517DCDDE900015A46029B04
:10326000FDF7B5F942462B46FDF73FF942462B469E
:10327000FDF794F80122FDF7ABFB304A304BFDF728
:103280002EF9304A304B4CE04FF0000A52460B46C4
:103290004046FDF783F8CDE9031052462B46104611
:1032A0001946FDF722F932463B46FDF71BF9DDE9E9
:1032B0000332FDF78CF906460F46DDE900015A4658
:1032C000029BFDF784F9834600910122304639467E
:1032D000FDF77EFB194A1A4BFDF704F906460F4627
:1032E000012240462946FDF773FB5A46009BFDF735
:1032F000FCF832463B46FDF7F2F806460F4601223F
:1033000050462946FDF764FB0E4DDFF858802A46EB
:103310004346FDF7E7F832463B46FDF7E3F82A4619
:103320004346FDF7DFF8002CD8BF81F0004106B01E
:10333000BDE8F08D0000F03F0000F07F075C143323
:1033400026A6913C182D4454FB21F93F0000E03F94
:10335000905A0000A65A00001A5A0000305A000085
:103360003333EF3FFB21E93F2DE9F84F04460D468B
:1033700021F0004000917349814211DC724988427A
:1033800001DC06D12CB120462946BDE8F84FFFF7F5
:1033900036BE6E48002DCCBF6D496E49BDE8F88F32
:1033A0006D49814211DD6D498142D8BF4FF0FF3632
:1033B0006DDD20462946FFF7B9FD042808BFFFF759
:1033C00029FE20462946BDE8F88F6549654F25F05E
:1033D0000045814233DD6449814219DD00263246D1
:1033E0004FF0804320462946FCF7D8FF80468A46A6
:1033F000012220462946FDF7EBFA00223B46FDF765
:103400006EF842465346FDF7E2F804460D463EE0AC
:1034100001260022BA463B4620462946FCF7BEFF5D
:1034200080460F460022534620462946FDF757F8AE
:1034300042463B46FDF7CBF804460D4627E04B4994
:1034400081421BDDDFF828A10226002253462046D8
:103450002946FDF74AF800223B46FCF79FFF8046CD
:103460000F460022534620462946FDF738F84246CB
:103470003B46FDF7ACF804460D4608E0032622461D
:103480002B4600203B49FDF7A2F804460D46224694
:103490002B4610461946FDF728F88B468246024611
:1034A0000B46FDF722F807460246334888460B468E
:1034B00006217844FFF74EFD52465B46FDF715F8AE
:1034C00082462E488B463A46434605217844FFF70C
:1034D00041FD3A464346FDF708F802460B46002EEA
:1034E000504659460CDAFCF759FF22462B46FCF7AA
:1034F000FCFF01B022462B46BDE8F04FFCF7F2BFBF
:10350000FCF74CFF22462B46FCF7EFFF1C4A7A449F
:1035100002EBC603D3E90023FCF7E1FF22462B466A
:10352000FCF7DDFF174A7A4402EBC603D3E9002318
:10353000FCF7D8FF009A002AB8BF81F00041BDE82F
:10354000F88F0000000010440000F07F182D445454
:10355000FB21F93FFB21F9BF0000DC3F0000203ECA
:103560000000F33F0000F03F0000E63F0080034012
:103570000000F83F0000F0BF32580000F057000094
:103580008E570000565700002DE9F04D9446CCF1BF
:10359000000423F000464CEA0404594F46EAD47470
:1035A0009A46884621F00042BC4206D8454240EA8D
:1035B000050442EAD474BC4204D9BDE8F04D624629
:1035C000FFF720BDAAF14055A5F17F6555EA0C042F
:1035D0000BD0022404EAAA744A4DDFF82CE144EA35
:1035E000D87452EA000B04D00CE0BDE8F04DFFF7B0
:1035F000BBBE002C14BF012CBDE8F08D022C30D0D6
:10360000032C32D056EA0C0B0AD0BE4220D1BA426B
:1036100009D126F0804622F080423346114617E059
:1036200000291ADB25E0DFF8E4B0FB44002C04BFDE
:10363000DBE90001BDE8F08D012C02BFDBE90001F0
:1036400081F00041BDE8F08D022C0AD0032C0CD093
:10365000BA4212D1B8F1000F0BDA2A482C49BDE862
:10366000F08D28462B49BDE8F08D28467146BDE80F
:10367000F08D24482849BDE8F08D921B12153C2A94
:10368000C4BF204F244E10DCBAF1000FBEBF12F1B0
:103690003C0F00273E4608DB6246FCF798FF21F00E
:1036A0000041FFF761FE07460E4694B1012C08BFAA
:1036B00086F000460DD0194A194B022C3846314687
:1036C00015D0FCF70CFF2A46BDE8F04D114BFCF776
:1036D00006BF0022134638463146FDF7E1F904BF24
:1036E0000220FFF7AFFC38463146BDE8F08DFCF70D
:1036F000F6FE2A46BDE8F04D064BFCF7F3BE00008F
:103700000000F07F182D4454FB2109C0EA56000048
:10371000FB21F9BFFB210940FB21F93F075C143372
:1037200026A6A13C2DE9F047BCB00024A146A24644
:103730000020A94908804FF6FF70A84908800020A2
:10374000A7490860A749086000BF48E04FF0000A99
:10375000D1460AE004F109004844A34931F81000B9
:10376000824409F1010000F0FF09B9F1050FF1DB16
:103770000520BAFBF0F006A921F8140006A830F8DD
:10378000140095490988884205DD06A830F8140020
:10379000914908800BE006A830F814008F49098889
:1037A000884204DA06A830F814008C49088006A97B
:1037B00031F81400FCF783FF05468C480168284661
:1037C000FCF7FCFF09D286480068401C8449086069
:1037D00084480068204483490860601CC4B26B2C94
:1037E000B4DB804800687E490968B0FBF1F07D4990
:1037F00008607949088800EBD0714910C91C7C4ADF
:1038000011801046008874490988884203DD724897
:103810000088114608807749774A127831F81210EB
:10382000734A1288501AFCF74FFF0022734BCDE900
:103830000001FCF75AFE0022714BCDE90201FCF7B2
:10384000C6FE05460E4669480068FCF788FF074635
:103850002A463346FCF7A2FDCDE90401FCF792FFAE
:1038600062490860624800886249634A127821F818
:10387000120061480078042801D1002002E05E486F
:103880000078401C5C4908705E480078D8B9012077
:103890005C4908705CA20A210020FEF723F85BA2B5
:1038A0000A211C20FEF71EF859A20A213820FEF733
:1038B00019F858A20A215420FEF714F856A20A213A
:1038C0007020FEF70FF855480078052801D1002038
:1038D00002E052480078401C5049087008460078C1
:1038E00088BB00242CE006A931F81400FCF7E7FEA1
:1038F00005463E4801682846FCF760FF0FD24FF0AE
:10390000000908E0012249462046FDF735FE09F18D
:10391000010000F0FF09B9F1080FF3DB0EE04FF0F2
:10392000000908E0002249462046FDF725FE09F17E
:10393000010000F0FF09B9F1080FF3DB601CC4B20D
:103940006B2CD0DB44E0FFE734480078012831D10C
:103950000C20032300902348142102680020FDF767
:1039600077FF0C20032300901D48142102681C20BF
:10397000FDF76EFF0C2003230090174802881421E6
:103980003820FDF765FF0C200323009013480288C0
:1039900014215420FDF75CFF14480068FCF7CBFEAF
:1039A00005460C2003232A46142100906D20FDF7C4
:1039B0004FFF0DE019480078022809DB174800780E
:1039C000052805DC15490978891CC8B2FDF7CCFE2D
:1039D0003CB0BDE8F0870000D6010020D8010020EF
:1039E000D0010020CC0100205C0B0020E001002071
:1039F000DA0100205C0C0020DC0100200000F03F18
:103A000000001440D40100204D4944004E554D00A3
:103A10004D4158004D494E0059550000D501002038
:103A200070B50024002501201C49086000201C49B5
:103A3000C1F88C01FDF71FF901201849091D086024
:103A400000201749C1F88801FDF715F90120134935
:103A5000086000201249C1F88C01FDF70CF900BF85
:103A600017E000200D490860FDF705F9FDF703F99F
:103A70000820FDF7A9FA00110A4921F81500681C71
:103A8000C5B201200649C1F88801FDF7F4F8601CB1
:103A9000C4B2802CE5DBFFF745FE70BD88012142F2
:103AA000000021425C0B002010B55048806940F0B6
:103AB00004004E4988610846806940F0080088612A
:103AC0004B48006820F00F004949086049480068E9
:103AD00020F47F40474908600846006840F40850D9
:103AE00008604248806940F4007040498861084697
:103AF000C06840F40070C8600846C06820F40070D8
:103B0000C8600846406820F4404048600846406865
:103B100040F4004048603848006838490840364959
:103B200008600846006808600846006820F4807055
:103B30000860081D006820F00200091D08600846A2
:103B4000006820F4602008600846006840F46020A7
:103B500008600846006840F4801008600846006865
:103B600020F40060086024482830006820F47000C9
:103B700021492831086008460068002008601E4876
:103B80000C30006820F070601B490C31086008465A
:103B9000006840F0E06008601748001D006840F0D1
:103BA00001001549091D08600846006840F008003A
:103BB000086000BF1048001D006800F008000028E1
:103BC000F8D10D48001D006840F004000A49091DA5
:103BD000086000BF0848001D006800F004000028CD
:103BE000F8D1012000F060F810BD00000010024084
:103BF000000C01400008014004240140FFFFF000D8
:103C00002DE9F0410446E07800F0C006E07800F0CD
:103C10003F05607800F0010098B1EF102846E917E1
:103C200005EB5171C910A5EBC101491C01F0FF085A
:103C30000B48006820B10A48414602683846904760
:103C400000BF607800F0080030B10548406818B146
:103C5000B011034A516888470020BDE8F081000098
:103C6000EC02002010B56FF00400FEF73BF90A48A3
:103C700000680A49B0FBF1F009490870084600786D
:103C800000EB4001C1EBC0104FF6FF7101EAC0002C
:103C90000449088010BD0000D402002000127A0000
:103CA00014000020160000200146114A12884A43E1
:103CB0004FF0E0235A6100229A611A46126942F0DD
:103CC00001021A6100BF4FF0E022106900F001020A
:103CD0001AB100F48032002AF5D04FF0E0221269C8
:103CE00022F001024FF0E0231A6100229A6170472E
:103CF000160000200146114A12784A434FF0E02393
:103D00005A6100229A611A46126942F001021A6150
:103D100000BF4FF0E022106900F001021AB100F478
:103D20008032002AF5D04FF0E022126922F0010221
:103D30004FF0E0231A6100229A61704714000020BE
:103D400010B58CB00446194951F824000121FDF743
:103D50008BFE04EBC40000EB0410154901EBC0001E
:103D60000290144850F82400001D01900020039098
:103D7000C820049000200890802006900020079022
:103D8000059009904FF400500A9000200B900A49CA
:103D900051F8240001A9FCF721FF074951F824003C
:103DA0000121FCF70BFF0CB010BD000090010020BA
:103DB000FC060020E8000020B801002010B58CB0FF
:103DC0000446154951F824000121FDF74DFE134822
:103DD00050F824000290124850F82400001D019071
:103DE000102003900020049008908020069000206E
:103DF0000790059009900A900B900A4951F8240009
:103E000001A9FCF7EBFE074951F824000121FCF75A
:103E1000D5FE0CB010BD000090010020F80A002073
:103E2000E8000020A401002038B5044664B1202039
:103E30008DF8000028208DF8010030208DF8020058
:103E400038208DF8030004E0A32204216846FCF723
:103E5000BEF96A46042140F69E2002F0B1FB01F053
:103E6000A1FF38BD3EB5044602208DF80000CA20EF
:103E70008DF80100E3208DF8020009208DF8030081
:103E80006A460421682002F09BFBA3208DF8000005
:103E900004F0400048B1C0208DF80100C8208DF822
:103EA0000200C2208DF8030006E0A3208DF8010077
:103EB0008DF802008DF8030004F4C07048B1C420EE
:103EC0008DF80400CC208DF80500C6208DF8060082
:103ED00006E0A3208DF804008DF805008DF806009B
:103EE000A3208DF807008DF808008DF809006A46B8
:103EF0000A2140F6A72002F063FB04F0030018B18A
:103F000020208DF8000002E0D8208DF800006A46DD
:103F1000012140F6B62002F053FB04F0200018B156
:103F2000012000F0ADF802E0002000F0A9F804F450
:103F3000C07008B304F4807060B1B2208DF8000046
:103F40008B208DF80100B6208DF802009B208DF8A3
:103F500003000BE0B0208DF8000080208DF80100F8
:103F6000B4208DF8020090208DF803006A460421E9
:103F700040F6A22002F024FB04F0010020B3F82058
:103F80008DF800006A4601214FF40B6002F018FB27
:103F9000FA21072000F02CFC072000F0F3FB0120A1
:103FA00000F013FC642000F0F3FC4FF4FA7000F012
:103FB00002FDC821304800F0A3FB282000F0BCFB24
:103FC0000A2000F0CCFB08E0D8208DF800006A46FB
:103FD00001214FF40B6002F0F3FA04F0020018B173
:103FE000D9208DF8000002E0D8208DF800006A4644
:103FF000012140F23D7002F0E3FA04F0040018B130
:10400000012000F069F802E0002000F065F804F0FB
:10401000100018B10120FFF707FF02E00020FFF7B2
:1040200003FF44F008001549488101F0BBFE002061
:104030001249887304F0400018B10846807B801D47
:10404000887304F4C07020B10C48807B801D0B493C
:10405000887304F0140020B10848807B10300749B1
:10406000887304F0030020B10448807B001D0349DD
:10407000887300203EBD000009E3CA02EC02002064
:104080003EB504466CB10EA1D1E900208968CDE9A6
:10409000002002916A4609214FF4976002F090FADD
:1040A0003EBD0AA2D2E900109268CDE9010200915A
:1040B0006A4609214FF4976002F082FAF0E70000A7
:1040C000B8AAB38DB4980D355D000000B8AAAAAAAD
:1040D000B088C3C5C700000038B5044664B1C0202D
:1040E0008DF80000C2208DF80100C4208DF8020078
:1040F000C6208DF8030004E08B2204216846FCF7FB
:1041000066F86A46042140F6982002F059FA01F058
:1041100049FE38BD10B5C8234FF48062024940F60D
:10412000F63001F0D3FC10BDD07500082DE9F04F3A
:104130008DB00746884615469946DDE9166B002482
:10414000002030806B49887B5A4605A901F08AFD22
:1041500018B1601E0DB0BDE8F08F6648807A00F09F
:104160001400002867D09DF8140000069DF8151073
:1041700040EA01409DF8161040EA01209DF8171012
:10418000084328609DF8180000069DF8191040EAC1
:1041900001409DF81A1040EA01209DF81B100843C9
:1041A00068609DF81C0000069DF81D1040EA014063
:1041B0009DF81E1040EA01209DF81F100843A860DA
:1041C0009DF8200000069DF8211040EA01409DF86E
:1041D000221040EA01209DF823100843E86004F112
:1041E0001000C4B22868001401906868001402909E
:1041F000A86800140390E8680014049001984043F4
:10420000029901FB0100039901FB0100049901FBE4
:10421000010ABAF1706F02DBBAF1885F05DD01F0C7
:10422000C1FD00203080401E94E7B6F9000040F444
:104230008070308000BF2F48807A00F0400020B3AB
:1042400005A9601C085C095D40EA012000B2A8F8DD
:10425000000005A9E01C095C05AAA01C105C41EA4D
:10426000002000B2A8F8020005A9601D095C201D0D
:10427000105C41EA002000B2A8F80400A01DC4B2FE
:10428000B6F9000040F0080030801A48408900F478
:10429000C07008B305A9601C085C095D40EA0120F4
:1042A00000B2388005A9E01C095C05AAA01C105CBE
:1042B00041EA002000B2788005A9601D095C201D3C
:1042C000105C41EA002000B2B880A01DC4B2B6F96B
:1042D000000040F0700030800648807A00F0030053
:1042E00018B105A90819FFF78BFC484602F0A8F998
:1042F00000202FE7EC02002070B588B0064601A828
:1043000001F04CFABDF804000021C90341EA504510
:10431000C4034448007A00F0030056F820000590DA
:104320004048007A00F0040010B105984042059022
:104330003C48007AC0F3C10056F820000690394886
:10434000007A00F0200010B10698404206903548EF
:10435000007AC0F3811056F8200007903148008998
:1043600000F4807010B10798404207900598C1177B
:10437000A0FB042301FB043100FB0510810041EA8E
:10438000927005900698C117A0FB042301FB04312D
:1043900000FB0510810041EA927006900798C11752
:1043A000A0FB042301FB043100FB0510810041EA5E
:1043B000927007900598000E8DF808000598000C83
:1043C0008DF809000598000A8DF80A000598C0B21A
:1043D0008DF80B000698000E8DF80C000698000C66
:1043E0008DF80D000698000A8DF80E000698C0B2F0
:1043F0008DF80F000798000E8DF810000798000C3C
:104400008DF811000798000A8DF812000798C0B2C5
:104410008DF8130002AA0C214FF4257002F0D0F899
:1044200008B070BDEC02002030B585B0044616A27D
:1044300007CA02AB07C3C82C03DD4FF0FF3005B03D
:1044400030BDC82090FBF4F0401E85B2280A8DF8DC
:104450000000E8B28DF801006A46022140F2162001
:1044600002F0AEF810B14FF0FF30E8E702AA0C21DD
:1044700040F6C12002F0A4F810B14FF0FF30DEE7A3
:10448000044884810020DAE7FEF2ABC4AAF1DFDF42
:10449000BBAFDFDFEC0200201FB504464848007ABE
:1044A00000F0030054F8200001904548007A00F025
:1044B000040010B10198404201904148007AC0F3D5
:1044C000C10054F8200002903D48007A00F020001E
:1044D00010B10298404202903948007AC0F381102E
:1044E00054F8200003903648008900F4807010B121
:1044F0000398404203903349019880FB0101800FEB
:1045000040EA810001902F49029880FB011082004F
:1045100042EA917002902B49039880FB01108200BF
:1045200042EA917003900198000E8DF80000019806
:10453000000C8DF801000198000A8DF80200019826
:10454000C0B28DF803006A4604214FF4747002F083
:1045500037F818B14FF0FF3004B010BD0298000ECC
:104560008DF800000298000C8DF801000298000AF6
:104570008DF802000298C0B28DF803006A4604214B
:104580004FF4757002F01CF810B14FF0FF30E3E704
:104590000398000E8DF800000398000C8DF80100C0
:1045A0000398000A8DF802000398C0B28DF803004A
:1045B0006A4604214FF4767002F002F8CCE700005E
:1045C000EC02002009E3CA0210B586B0044647A0F9
:1045D0000068039046A00068029046A00068019021
:1045E00045A00068009004F0030003A9085C8DF862
:1045F000140003A8C4F3C101405C8DF8150003A8A2
:10460000C4F38111405C8DF8160004F0030002A988
:10461000085C8DF8100002A8C4F3C101405C8DF85D
:10462000110002A8C4F38111405C8DF8120005AAA4
:10463000032140F2264001F0C3FF18B14FF0FF30D4
:1046400006B010BD04AA032140F22A4001F0B8FFD1
:1046500010B14FF0FF30F3E70198059000980490F7
:1046600004F0040058B19DF8140040F001008DF8EA
:1046700014009DF8100040F001008DF8100004F0C7
:10468000200058B19DF8150040F001008DF815008C
:104690009DF8110040F001008DF8110004F48070C5
:1046A00058B19DF8160040F001008DF816009DF8F5
:1046B000120040F001008DF8120005AA03214FF40A
:1046C000886001F07DFF10B14FF0FF30B8E704AA19
:1046D000032140F2314001F073FF10B14FF0FF3081
:1046E000AEE7064804810020AAE700004CCD6C002C
:1046F0000CC92C003656760026466600EC020020D7
:10470000F8B505460E464FF47A7095FBF0F000FBC5
:1047100006F4200E8DF80000200C8DF80100200A10
:104720008DF80200E0B28DF803006A4604214FF4D0
:10473000AE7001F045FFF8BD38B50446052094FB86
:10474000F0F084B220128DF80000E0B28DF8010084
:104750006A4602214FF4AD7001F032FF38BD38B522
:104760000446052094FBF0F084B220128DF800007E
:10477000E0B28DF801006A4602214FF4AC7001F0FE
:104780001FFF38BD38B504460020009004F001003A
:1047900020B19DF8000040F03000009004F00200CD
:1047A00020B19DF8000040F00C00009004F00400DF
:1047B00020B19DF8000040F0030000906A460121FE
:1047C0004FF4A47001F0FCFE38BD38B50446012C4E
:1047D00001DA012402E0042C00DD0424601EC0B2D2
:1047E00000906A46012140F24F1001F0E9FE38BD09
:1047F0002DE9FC4706460F4606F0070010B1B7F555
:10480000C86F03DD4FF0FF30BDE8FC873846FBF78B
:1048100056FF81465949FBF783FD8046684600F004
:1048200097FF9DF80000022806D0042816D008281B
:1048300026D0102848D135E04FF08D414046FBF797
:104840003DFD8146FBF777FF84B24D494046FBF7BB
:1048500035FD8146FBF76FFF85B238E04FF08C41A4
:104860004046FBF72BFD8146FBF765FF84B24549C7
:104870004046FBF723FD8146FBF75DFF85B226E04E
:104880004FF08B414046FBF719FD8146FBF753FF84
:1048900084B23D494046FBF711FD8146FBF74BFFD3
:1048A00085B214E04FF08A414046FBF707FD814690
:1048B000FBF741FF84B235494046FBF7FFFC8146D8
:1048C000FBF739FF85B202E04FF0FF309CE700BFF5
:1048D00020128DF80400E0B28DF8050028128DF842
:1048E0000600E8B28DF8070006F00100A0B101AAA9
:1048F00002214FF4EA7001F063FE10B14FF0FF3077
:1049000082E70DF1060202214FF4927001F058FE89
:1049100010B14FF0FF3077E706F00200A0B101AA16
:1049200002214FF4EC7001F04BFE10B14FF0FF305C
:104930006AE70DF1060202214FF4947001F040FE87
:1049400010B14FF0FF305FE706F00400A0B101AAFC
:1049500002214FF4EE7001F033FE10B14FF0FF3042
:1049600052E70DF1060202214FF4967001F028FE85
:1049700010B14FF0FF3047E7002045E70000484303
:10498000000040460000C045000040450000C04413
:1049900038B50446052094FBF0F085B228128DF856
:1049A0000000E8B28DF801006A4602214FF4EF7072
:1049B00001F006FE38BD38B50446052094FBF0F042
:1049C00085B228128DF80000E8B28DF801006A4621
:1049D00002214FF4ED7001F0F3FD38BD7CB50546C2
:1049E00028494968087801AB04220D2100F056FCE3
:1049F00008B107207CBD9DF80700C0F301109DF8A9
:104A0000041001F0E00140EAE1008DF800009DF89B
:104A10000700C0F381009DF8051001F0E00140EAB5
:104A2000E1008DF801009DF8070000F003009DF8FB
:104A3000061001F0E00140EAE1008DF802000024D8
:104A40001CE01DF8040018B9002045F8240013E00C
:104A50000D4845F8240006E055F824000B49FBF703
:104A60002DFC45F824001DF80400401EC0B20DF8CE
:104A700004000028F0D100BF601CC4B2032CE0DBAE
:104A80000020B7E71C0000207B14AE3E1D5A843F77
:104A90002DE9F04F87B005460C46914601208DF870
:104AA000100000208DF81100FE4A1268917CFD4A2A
:104AB0005268107804AB022200F02BFC20B14FF0BA
:104AC000FF3007B0BDE8F08FC820FFF7EDF80020F9
:104AD0008DF81000F34A1268D17BF24A52681078C0
:104AE00004AB012200F015FC10B14FF0FF30E8E7F5
:104AF000EC4A12685179EB4A5268107804AB0122F3
:104B000000F007FC10B14FF0FF30DAE7E54A126819
:104B1000917CE44A5268107804AB012200F0F9FB62
:104B200010B14FF0FF30CCE7DE4A1268D17DDD4A8C
:104B30005268107804AB012200F0EBFB10B14FF08B
:104B4000FF30BEE7D74A12681179D64A526810780A
:104B500004AB012200F0DDFB10B14FF0FF30B0E7F5
:104B60000C208DF81000CF4A12681179CD4A526896
:104B7000107804AB012200F0CCFB10B14FF0FF30F5
:104B80009FE70F20FFF790F8C648806A407A8DF8BB
:104B90001000C44A12689178C24A5268107804AB77
:104BA000012200F0B6FB10B14FF0FF3089E7BD489D
:104BB000806A007A8DF81000BA4A12685178B94AB2
:104BC0005268107804AB012200F0A3FB10B14FF043
:104BD000FF3076E7B9F1000F07D0B248806A807ADB
:104BE00040F0E0008DF8100004E0AE48806A807A62
:104BF0008DF81000AB4A12689179AA4A5268107871
:104C000004AB012200F085FB10B14FF0FF3058E7F4
:104C1000B9F1000F07D0A348806AC07A40F0E000E5
:104C20008DF8100003E0A048C07A8DF810009D4A6E
:104C30001268D1799B4A5268107804AB012200F0C7
:104C400068FB10B14FF0FF303BE7B9F1000F02D025
:104C5000C820FFF729F840208DF81000914A12680B
:104C60001179904A5268107804AB012200F051FB90
:104C700010B14FF0FF3024E778208DF81000894AFA
:104C800012685179874A5268107804AB012200F00B
:104C900040FB10B14FF0FF3013E783498889FFF7DD
:104CA00003F800208DF810007E4A126851797D4A81
:104CB0005268107804AB012200F02BFB10B14FF0CA
:104CC000FF30FEE6774A1268917A764A5268107889
:104CD00004AB022200F0E2FA10B14FF0FF30F0E630
:104CE0009DF811009DF8101040EA012B0C209BFB51
:104CF000F0F0C6B20020A86068602860A060606024
:104D00002060824665E0674A1268D17A654A526837
:104D1000107804AB0C2200F0C1FA10B14FF0FF3054
:104D2000CFE69DF811009DF8101040EA012000B276
:104D3000ADF808009DF813009DF8121040EA01201C
:104D400000B2ADF80A009DF815009DF8141040EA75
:104D5000012000B2ADF80C00BDF90810206808442D
:104D60002060BDF90A10606808446060BDF90C104D
:104D7000A0680844A0609DF817009DF8161040EA4E
:104D8000012000B2ADF800009DF819009DF8181040
:104D900040EA012000B2ADF802009DF81B009DF82A
:104DA0001A1040EA012000B2ADF80400BDF900106D
:104DB000286808442860BDF90210686808446860E3
:104DC000BDF90410A8680844A8600AF1010000F0C9
:104DD000FF0AB24597DB3448D0F800C02868C117F5
:104DE000090441EA10410704624600233846FBF7F4
:104DF000BDF932460023CDE90201FBF7B7F928607F
:104E00002948D0F800C06868C117090441EA104178
:104E10000704624600233846FBF7A8F93246002310
:104E2000CDE90201FBF7A2F968601F48D0F800C085
:104E3000A868C117090441EA10410704624600232B
:104E40003846FBF793F932460023CDE90201FBF720
:104E50008DF9A8601448D0F804C02068C11709046F
:104E600041EA10410704624600233846FBF77EF909
:104E700032460023CDE90201FBF778F920600A48A9
:104E8000D0F804C06068C117090441EA1041070462
:104E9000624600233846FBF769F932460023CDE924
:104EA000020103E01C000020A8750008FBF75EF972
:104EB00060601148D0F804C0A068C117090441EA35
:104EC00010410704624600233846FBF74FF932468B
:104ED0000023CDE90201FBF749F9A060A068002892
:104EE00004DDA068A0F58030A06003E0A06800F5B4
:104EF0008030A0600020E4E5A87500081FB50446D6
:104F00004A48046001210846FCF7CEFD01218020BB
:104F1000FCF7CAFD4FF6FF70ADF80C0048208DF885
:104F20000F0003A94248FBF771FF00210520FBF7A2
:104F30004DFF01210520FBF749FF02210520FBF76A
:104F400045FF03210520FBF741FF04210520FBF766
:104F50003DFF05210846FBF739FF06210520FBF739
:104F600035FF07210520FBF731FF08210520FBF75E
:104F70002DFF09210520FBF729FF0A210520FBF75A
:104F800025FF0B210520FBF721FF0C210520FBF756
:104F90001DFF0D210520FBF719FF0E210520FBF752
:104FA00015FF0F210520FBF711FF4FF6FF70019051
:104FB00000208DF808000C208DF8090001208DF8E4
:104FC0000A0001A8FBF7B8FE28208DF80000012098
:104FD0008DF801008DF802008DF803006846FCF79B
:104FE00071FA17208DF800006846FCF76BFA06206E
:104FF0008DF800006846FCF765FA07208DF8000080
:105000006846FCF75FFA08208DF800006846FCF758
:1050100059FA09208DF800006846FCF753FA0A2077
:105020008DF800006846FCF74DFA1FBD8400002093
:10503000001C014038B5044644B901210846FCF77C
:1050400033FD01211648FBF76DFF09E0012C07D164
:1050500001210846FCF728FD01210803FBF762FF48
:10506000104951F824000121FCF71EFD6846FBF7AA
:10507000A3FF0D4830F824000C4931F824100843F0
:1050800080B2ADF8000004208DF8030003208DF8F5
:105090000200074951F824006946FBF7B7FE38BD06
:1050A00000081A00B8000020C8000020D800002026
:1050B000A800002038B50446164951F82400012103
:1050C000FBF730FF144951F824000121FCF7ECFCF8
:1050D000124830F8240080B2ADF8000018208DF896
:1050E000030003208DF802000D4951F824006946A1
:1050F000FBF78CFE0B4830F8240080B2ADF80000BE
:1051000004208DF80300064951F824006946FBF796
:105110007DFE38BD240100204C01002060010020EC
:10512000380100207401002008B501214020FCF75F
:10513000BBFC7F20ADF8000010208DF80300032099
:105140008DF8020069460448FBF760FE7F210248A3
:10515000FBF730FF08BD0000001801402DE9FC5F9F
:1051600006460F4600253D494968087801AB0322F1
:105170000D2100F093F810B10720BDE8FC9F9DF8C9
:10518000040000F01F008DF804009DF8050000F0F9
:105190001F008DF805009DF8060000F01F008DF837
:1051A0000600002456E056F8240057F82410A0EB1F
:1051B000010BBBF1000F01DB594601E0CBF100010F
:1051C0000846FBF773FA4FF08F410090FBF7A8F801
:1051D000814601A8005D68B321490868FBF76FFAB2
:1051E000834659461F48FBF79BF8804604E01E495A
:1051F0004046FBF763F8804601A8005D401EC0B240
:1052000001A908550028F2D141464846FBF788F825
:1052100083464FF07E51FBF74BF882462AF0004B55
:105220000F4881695846FBF7D3FA12D20120A040FB
:1052300005430EE00A4801694846FBF7BFFA05D36B
:10524000074841694846FBF7C3FA02D20120A04053
:105250000543641C032CA6DB28468EE71C000020B7
:10526000A875000800B04C4554E3853F10B50024F4
:1052700000BF0BE0074901EB8400D0F8000120B922
:105280002046FBF713FA04490860641C102CF1DB7C
:1052900010BD000000802342540200202DE9F0419F
:1052A00006460F4614461D46FBF7A2FF10B9012023
:1052B000BDE8F0817106080EFBF768FFFBF7F0FF11
:1052C00018B9FBF7C9FF0120F2E73846FBF75EFF8C
:1052D000FBF7E6FFFBF78CFF012101EB4601C8B2AB
:1052E000FBF754FFFBF7DCFF0DE0012C04D100209D
:1052F000FBF714FF287003E00120FBF70FFF287075
:105300006D1C601EC4B2002CEFD1FBF7A5FF00207E
:10531000CEE72DE9F04105460E4617469846FBF7C5
:1053200067FF10B90120BDE8F0816906080EFBF7A0
:105330002DFFFBF7B5FF18B9FBF78EFF0120F2E751
:105340003046FBF723FFFBF7ABFF00240BE018F818
:105350000400FBF71BFFFBF7A3FF18B9FBF77CFF6B
:105360000020E0E7641CBC42F1DBFBF775FF002086
:10537000D9E7000070B50446641E074850F82400C1
:10538000808C00B24542044951F824004FF6FF7169
:10539000FDF7ECFB284670BD8800002010B50446E0
:1053A000641E2046FFF746FE204601F0ABFC034991
:1053B00051F824000121FDF7CEF910BD880000202E
:1053C00070B50546284600F00FF80446E81C00F0CA
:1053D0000BF844EAC00084B2A81D00F005F844EAC6
:1053E000801084B2204670BD014691F90020002A49
:1053F00001DD00201EE091F90020002A01DA0420DE
:1054000018E091F90120002A01DD012012E091F954
:105410000120002A01DA05200CE091F90220002A7F
:1054200001DD022006E091F90220002A01DA0620BF
:1054300000E00720704700000EB54FF4A060FCF7B5
:1054400079F801210846FCF72FFB01213B48FBF7C7
:1054500069FDFEF707FCFCF7C3F84FF4E1310120CA
:1054600001F0F0FE4FF4E131022001F0EBFE4FF4C9
:10547000E131032001F0E6FE4FF4E131042001F0B8
:10548000A5FF002000900190034602464FF4E13151
:105490000290052001F0C2FF00F014F9FEF704FBB2
:1054A00000F070F80120FFF779FF0220FFF776FF88
:1054B0000320FFF773FF0420FFF770FF2048FFF77A
:1054C0001DFDFFF731FE01201E490860091F08601D
:1054D000091F0860091F0860091F0860091F08608C
:1054E000091F086000231A46194600901648FCF769
:1054F000ADFA012000231A46194600901348FCF724
:10550000A5FA012000231A46194600901048FCF71E
:105510009DFA012000231A46194600900D48FCF719
:1055200095FA012000231A46194600900A48FCF714
:105530008DFA0A2000F012F800BFFEE700023000EA
:105540006D520008980123423012002048120020BA
:1055500060120020781200209012002010B504463E
:10556000204601F0A9FB012211460548FDF791F9FB
:1055700001F067F801210248FDF7EDF810BD0000C9
:105580000010004010B5012001F09CFA012001F04C
:1055900013FB10BD10B5002145480068FBF718F952
:1055A0000DD843480068FBF7C6F884B2214641484D
:1055B000FDF7D3FA00213F48FDF7D1FA0CE00021B6
:1055C0003C48FDF7CAFA3A480068FBF7B4F884B2E1
:1055D00021463848FDF7C3FA002137480068FBF739
:1055E000F7F80DD834480068FBF7A5F884B22146D7
:1055F0003048FDF7B6FA00212E48FDF7B4FA0CE06A
:1056000000212C48FDF7ADFA2B480068FBF793F812
:1056100084B221462748FDF7A6FA002127480068F2
:10562000FBF7D6F80FD825480068FBF784F884B25A
:1056300021464FF08040FDF790FA00214FF0804066
:10564000FDF78DFA0EE000214FF08040FDF785FA5E
:105650001A480068FBF76FF884B221464FF080408B
:10566000FDF77DFA002116480068FBF7B1F80FD866
:1056700013480068FBF75FF884B221464FF0804082
:10568000FDF76FFA00214FF08040FDF76CFA0EE055
:1056900000214FF08040FDF764FA09480068FBF7ED
:1056A0004AF884B221464FF08040FDF75CFA10BD05
:1056B00044020020002C0140480200204C0200203F
:1056C0005002002010B5FBF7EDFCFBF7AAFEC82046
:1056D000FEF7EAFAFBF7A2FAC820FEF7E5FA10BDDA
:1056E00070B50446002624F00104184890F8240000
:1056F00008B1002070BD1548807A10B94FF0FF3016
:10570000F8E71248057C807A204010490874084662
:10571000007CA04202D04FF0FF3600E0002614B912
:105720000A48007D18B1012001F004F802E00020D1
:1057300001F000F83CB100F035FB20B103480574DE
:105740004FF0FF30D6E73046D4E700001C000020C1
:1057500001461148407A30B1012807D0022808D00C
:1057600003280CD108E0022008700BE00420087028
:1057700008E00820087005E01020087002E04FF0F3
:10578000FF30704700BF0448C07C18B1087840065D
:10579000000E08700020F4E71C00002001461348AA
:1057A000407A30B1012808D002280AD0032810D14D
:1057B0000BE04FF4804008800EE041F69C700880BA
:1057C0000AE04FF48050088006E04FF40060088043
:1057D00002E04FF0FF30704700BF0448C07C10B1BA
:1057E0000888401008800020F5E700001C00002019
:1057F00001460248007C0870002070471C00002011
:1058000001460F48007A30B1012807D0022809D09C
:1058100003280FD10AE0FA2008800EE04FF4FA7056
:1058200008800AE04FF47A70088006E04FF4FA60CE
:10583000088002E00020088000BF00BF0020704701
:105840001C00002001460E48007A30B1012807D024
:10585000022808D003280CD108E00A4808600BE0B1
:105860000948086008E00948086005E00848086041
:1058700002E04FF0FF30704700BF0020FBE7000060
:105880001C00002000000343000083423333034226
:105890003333834101461248C07A082817D2DFE823
:1058A00000F01704070A0D101318BC20088013E03D
:1058B0006220088010E02A2008800DE01420088073
:1058C0000AE00A20088007E00520088004E000BF05
:1058D00000BF0020088000BF00BF0020704700000C
:1058E0001C0000200146064890F8240010B14FF03B
:1058F000FF3070470248C08908800020F9E70000A7
:105900001C00002010B5FCF749F90648006806495C
:1059100008600648006806490860064800680649AD
:10592000086010BD58000020E40100205C00002049
:10593000E801002060000020EC0100201CB5802060
:105940008DF80000604A1268917C5F4A52681078B6
:105950006B460122FFF7DDFC10B14FF0FF301CBD9C
:105960006420FEF7A1F900208DF80000564A126865
:10597000917C554A526810786B460122FFF7C9FCAA
:1059800010B14FF0FF30EAE74F4A1268917D4E4A5E
:10599000526810786B460622FFF780FC10B14FF07A
:1059A000FF30DCE79DF80500C007400F9DF80310AD
:1059B00001F0010140EA41009DF8011001F00101F0
:1059C00040EA010474B1012C03D101213E48C174A5
:1059D00027E0022C03D100213B48C17421E04FF0A5
:1059E000FF30BCE7384A1268D178374A52681078DD
:1059F0006B460122FFF752FC10B14FF0FF30AEE7CB
:105A00009DF8000000F00F0414B94FF0FF30A6E736
:105A1000042C03D101212C48C17402E000212A4842
:105A2000C174FF2128488172FF2027490872FF2195
:105A300025484172C1724FF6FF71C181FF21017487
:105A400081740121017380F82210002180F8231055
:105A5000417501751630016041608160163880F82B
:105A6000241080F82510C1844FF4FA6000F036FC51
:105A700010B14FF0FF3072E7022000F0FFFA10B1D2
:105A80004FF0FF306BE72A2000F0A2FC10B14FF07E
:105A9000FF3064E7322000F0DDFC10B14FF0FF3042
:105AA0005DE70020FFF71CFE10B14FF0FF3056E716
:105AB000002000F025FB10B14FF0FF304FE7002031
:105AC00000F016FD00204AE71C0000202DE9F043FD
:105AD00085B005460E4690469946294890F825001F
